{
  "contractName": "Commend",
  "abi": [
    {
      "anonymous": false,
      "inputs": [
        {
          "indexed": false,
          "internalType": "address",
          "name": "nftContract",
          "type": "address"
        },
        {
          "indexed": false,
          "internalType": "uint256",
          "name": "tokenId",
          "type": "uint256"
        },
        {
          "indexed": false,
          "internalType": "address",
          "name": "seller",
          "type": "address"
        },
        {
          "indexed": false,
          "internalType": "address",
          "name": "owner",
          "type": "address"
        }
      ],
      "name": "NFTDeleted",
      "type": "event"
    },
    {
      "anonymous": false,
      "inputs": [
        {
          "indexed": false,
          "internalType": "address",
          "name": "nftContract",
          "type": "address"
        },
        {
          "indexed": false,
          "internalType": "uint256",
          "name": "tokenId",
          "type": "uint256"
        },
        {
          "indexed": false,
          "internalType": "address",
          "name": "seller",
          "type": "address"
        },
        {
          "indexed": false,
          "internalType": "address",
          "name": "owner",
          "type": "address"
        }
      ],
      "name": "NFTListed",
      "type": "event"
    },
    {
      "anonymous": false,
      "inputs": [
        {
          "indexed": false,
          "internalType": "address",
          "name": "nftContract",
          "type": "address"
        },
        {
          "indexed": false,
          "internalType": "uint256",
          "name": "tokenId",
          "type": "uint256"
        },
        {
          "indexed": false,
          "internalType": "address",
          "name": "seller",
          "type": "address"
        },
        {
          "indexed": false,
          "internalType": "address",
          "name": "owner",
          "type": "address"
        }
      ],
      "name": "NFTSold",
      "type": "event"
    },
    {
      "inputs": [
        {
          "internalType": "uint256",
          "name": "_tokenId",
          "type": "uint256"
        },
        {
          "internalType": "uint256",
          "name": "_commendCount",
          "type": "uint256"
        },
        {
          "internalType": "string",
          "name": "_description",
          "type": "string"
        }
      ],
      "name": "giveCommend",
      "outputs": [],
      "stateMutability": "payable",
      "type": "function",
      "payable": true
    },
    {
      "inputs": [
        {
          "internalType": "uint256",
          "name": "_tokenId",
          "type": "uint256"
        }
      ],
      "name": "deleteNft",
      "outputs": [],
      "stateMutability": "nonpayable",
      "type": "function"
    },
    {
      "inputs": [
        {
          "internalType": "address",
          "name": "_nftContract",
          "type": "address"
        },
        {
          "internalType": "uint256",
          "name": "_tokenId",
          "type": "uint256"
        }
      ],
      "name": "listNft",
      "outputs": [],
      "stateMutability": "payable",
      "type": "function",
      "payable": true
    },
    {
      "inputs": [
        {
          "internalType": "address",
          "name": "_address",
          "type": "address"
        }
      ],
      "name": "hasListedNft",
      "outputs": [
        {
          "internalType": "bool",
          "name": "",
          "type": "bool"
        }
      ],
      "stateMutability": "view",
      "type": "function",
      "constant": true
    },
    {
      "inputs": [],
      "name": "getListedNfts",
      "outputs": [
        {
          "components": [
            {
              "internalType": "address",
              "name": "nftContract",
              "type": "address"
            },
            {
              "internalType": "uint256",
              "name": "tokenId",
              "type": "uint256"
            },
            {
              "internalType": "address payable",
              "name": "seller",
              "type": "address"
            },
            {
              "internalType": "address payable",
              "name": "owner",
              "type": "address"
            },
            {
              "internalType": "bool",
              "name": "listed",
              "type": "bool"
            },
            {
              "internalType": "uint256",
              "name": "commendCount",
              "type": "uint256"
            },
            {
              "internalType": "string[]",
              "name": "descriptions",
              "type": "string[]"
            }
          ],
          "internalType": "struct Commend.NFT[]",
          "name": "",
          "type": "tuple[]"
        }
      ],
      "stateMutability": "view",
      "type": "function",
      "constant": true
    },
    {
      "inputs": [],
      "name": "getMyNfts",
      "outputs": [
        {
          "components": [
            {
              "internalType": "address",
              "name": "nftContract",
              "type": "address"
            },
            {
              "internalType": "uint256",
              "name": "tokenId",
              "type": "uint256"
            },
            {
              "internalType": "address payable",
              "name": "seller",
              "type": "address"
            },
            {
              "internalType": "address payable",
              "name": "owner",
              "type": "address"
            },
            {
              "internalType": "bool",
              "name": "listed",
              "type": "bool"
            },
            {
              "internalType": "uint256",
              "name": "commendCount",
              "type": "uint256"
            },
            {
              "internalType": "string[]",
              "name": "descriptions",
              "type": "string[]"
            }
          ],
          "internalType": "struct Commend.NFT[]",
          "name": "",
          "type": "tuple[]"
        }
      ],
      "stateMutability": "view",
      "type": "function",
      "constant": true
    },
    {
      "inputs": [],
      "name": "getMyListedNfts",
      "outputs": [
        {
          "components": [
            {
              "internalType": "address",
              "name": "nftContract",
              "type": "address"
            },
            {
              "internalType": "uint256",
              "name": "tokenId",
              "type": "uint256"
            },
            {
              "internalType": "address payable",
              "name": "seller",
              "type": "address"
            },
            {
              "internalType": "address payable",
              "name": "owner",
              "type": "address"
            },
            {
              "internalType": "bool",
              "name": "listed",
              "type": "bool"
            },
            {
              "internalType": "uint256",
              "name": "commendCount",
              "type": "uint256"
            },
            {
              "internalType": "string[]",
              "name": "descriptions",
              "type": "string[]"
            }
          ],
          "internalType": "struct Commend.NFT[]",
          "name": "",
          "type": "tuple[]"
        }
      ],
      "stateMutability": "view",
      "type": "function",
      "constant": true
    }
  ],
  "bytecode": "0x608060405234801561001057600080fd5b506001600081905550612517806100286000396000f3fe6080604052600436106100705760003560e01c80638d6cb3fb1161004e5780638d6cb3fb146100e7578063b4d554a714610112578063c2f9312d1461014f578063f6b157a81461016b57610070565b8063047b07bf14610075578063192027eb146100a05780631f4cc4db146100bc575b600080fd5b34801561008157600080fd5b5061008a610194565b6040516100979190611a78565b60405180910390f35b6100ba60048036038101906100b59190611b06565b6105a0565b005b3480156100c857600080fd5b506100d1610952565b6040516100de9190611a78565b60405180910390f35b3480156100f357600080fd5b506100fc610dd0565b6040516101099190611a78565b60405180910390f35b34801561011e57600080fd5b5061013960048036038101906101349190611b46565b611111565b6040516101469190611b82565b60405180910390f35b61016960048036038101906101649190611cd2565b611167565b005b34801561017757600080fd5b50610192600480360381019061018d9190611d41565b6112bf565b005b606060006101a26002611539565b90506000805b82811015610247573373ffffffffffffffffffffffffffffffffffffffff16600360006001846101d89190611d9d565b815260200190815260200160002060030160009054906101000a900473ffffffffffffffffffffffffffffffffffffffff1673ffffffffffffffffffffffffffffffffffffffff160361023457818061023090611dd1565b9250505b808061023f90611dd1565b9150506101a8565b5060008167ffffffffffffffff81111561026457610263611ba7565b5b60405190808252806020026020018201604052801561029d57816020015b61028a6115b6565b8152602001906001900390816102825790505b5090506000805b84811015610595573373ffffffffffffffffffffffffffffffffffffffff16600360006001846102d49190611d9d565b815260200190815260200160002060030160009054906101000a900473ffffffffffffffffffffffffffffffffffffffff1673ffffffffffffffffffffffffffffffffffffffff160361058257600360006001836103329190611d9d565b81526020019081526020016000206040518060e00160405290816000820160009054906101000a900473ffffffffffffffffffffffffffffffffffffffff1673ffffffffffffffffffffffffffffffffffffffff1673ffffffffffffffffffffffffffffffffffffffff168152602001600182015481526020016002820160009054906101000a900473ffffffffffffffffffffffffffffffffffffffff1673ffffffffffffffffffffffffffffffffffffffff1673ffffffffffffffffffffffffffffffffffffffff1681526020016003820160009054906101000a900473ffffffffffffffffffffffffffffffffffffffff1673ffffffffffffffffffffffffffffffffffffffff1673ffffffffffffffffffffffffffffffffffffffff1681526020016003820160149054906101000a900460ff161515151581526020016004820154815260200160058201805480602002602001604051908101604052809291908181526020016000905b8282101561054d5783829060005260206000200180546104c090611e48565b80601f01602080910402602001604051908101604052809291908181526020018280546104ec90611e48565b80156105395780601f1061050e57610100808354040283529160200191610539565b820191906000526020600020905b81548152906001019060200180831161051c57829003601f168201915b5050505050815260200190600101906104a1565b505050508152505083838151811061056857610567611e79565b5b6020026020010181905250818061057e90611dd1565b9250505b808061058d90611dd1565b9150506102a4565b508194505050505090565b6105a8611547565b600460003373ffffffffffffffffffffffffffffffffffffffff1673ffffffffffffffffffffffffffffffffffffffff16815260200190815260200160002060009054906101000a900460ff1615610635576040517f08c379a000000000000000000000000000000000000000000000000000000000815260040161062c90611f05565b60405180910390fd5b8173ffffffffffffffffffffffffffffffffffffffff166323b872dd3330846040518463ffffffff1660e01b815260040161067293929190611f43565b600060405180830381600087803b15801561068c57600080fd5b505af11580156106a0573d6000803e3d6000fd5b505050506106ae6002611596565b6040518060e001604052808373ffffffffffffffffffffffffffffffffffffffff1681526020018281526020013373ffffffffffffffffffffffffffffffffffffffff1681526020013073ffffffffffffffffffffffffffffffffffffffff16815260200160011515815260200160008152602001600067ffffffffffffffff81111561073e5761073d611ba7565b5b60405190808252806020026020018201604052801561077157816020015b606081526020019060019003908161075c5790505b508152506003600083815260200190815260200160002060008201518160000160006101000a81548173ffffffffffffffffffffffffffffffffffffffff021916908373ffffffffffffffffffffffffffffffffffffffff1602179055506020820151816001015560408201518160020160006101000a81548173ffffffffffffffffffffffffffffffffffffffff021916908373ffffffffffffffffffffffffffffffffffffffff16021790555060608201518160030160006101000a81548173ffffffffffffffffffffffffffffffffffffffff021916908373ffffffffffffffffffffffffffffffffffffffff16021790555060808201518160030160146101000a81548160ff02191690831515021790555060a0820151816004015560c08201518160050190805190602001906108ad929190611637565b509050506001600460003373ffffffffffffffffffffffffffffffffffffffff1673ffffffffffffffffffffffffffffffffffffffff16815260200190815260200160002060006101000a81548160ff0219169083151502179055507f232534bbd51d7cde87652214a8c8454ac134ea309ff79aed199c676bebca94b98282333060405161093e9493929190611f7a565b60405180910390a161094e6115ac565b5050565b606060006109606002611539565b90506000805b82811015610a3e573373ffffffffffffffffffffffffffffffffffffffff16600360006001846109969190611d9d565b815260200190815260200160002060020160009054906101000a900473ffffffffffffffffffffffffffffffffffffffff1673ffffffffffffffffffffffffffffffffffffffff16148015610a175750600360006001836109f79190611d9d565b815260200190815260200160002060030160149054906101000a900460ff165b15610a2b578180610a2790611dd1565b9250505b8080610a3690611dd1565b915050610966565b5060008167ffffffffffffffff811115610a5b57610a5a611ba7565b5b604051908082528060200260200182016040528015610a9457816020015b610a816115b6565b815260200190600190039081610a795790505b5090506000805b84811015610dc5573373ffffffffffffffffffffffffffffffffffffffff1660036000600184610acb9190611d9d565b815260200190815260200160002060020160009054906101000a900473ffffffffffffffffffffffffffffffffffffffff1673ffffffffffffffffffffffffffffffffffffffff16148015610b4c575060036000600183610b2c9190611d9d565b815260200190815260200160002060030160149054906101000a900460ff165b15610db25760036000600183610b629190611d9d565b81526020019081526020016000206040518060e00160405290816000820160009054906101000a900473ffffffffffffffffffffffffffffffffffffffff1673ffffffffffffffffffffffffffffffffffffffff1673ffffffffffffffffffffffffffffffffffffffff168152602001600182015481526020016002820160009054906101000a900473ffffffffffffffffffffffffffffffffffffffff1673ffffffffffffffffffffffffffffffffffffffff1673ffffffffffffffffffffffffffffffffffffffff1681526020016003820160009054906101000a900473ffffffffffffffffffffffffffffffffffffffff1673ffffffffffffffffffffffffffffffffffffffff1673ffffffffffffffffffffffffffffffffffffffff1681526020016003820160149054906101000a900460ff161515151581526020016004820154815260200160058201805480602002602001604051908101604052809291908181526020016000905b82821015610d7d578382906000526020600020018054610cf090611e48565b80601f0160208091040260200160405190810160405280929190818152602001828054610d1c90611e48565b8015610d695780601f10610d3e57610100808354040283529160200191610d69565b820191906000526020600020905b815481529060010190602001808311610d4c57829003601f168201915b505050505081526020019060010190610cd1565b5050505081525050838381518110610d9857610d97611e79565b5b60200260200101819052508180610dae90611dd1565b9250505b8080610dbd90611dd1565b915050610a9b565b508194505050505090565b60606000610dde6002611539565b90506000610dec6001611539565b82610df79190611fbf565b905060008167ffffffffffffffff811115610e1557610e14611ba7565b5b604051908082528060200260200182016040528015610e4e57816020015b610e3b6115b6565b815260200190600190039081610e335790505b5090506000805b848110156111065760036000600183610e6e9190611d9d565b815260200190815260200160002060030160149054906101000a900460ff16156110f35760036000600183610ea39190611d9d565b81526020019081526020016000206040518060e00160405290816000820160009054906101000a900473ffffffffffffffffffffffffffffffffffffffff1673ffffffffffffffffffffffffffffffffffffffff1673ffffffffffffffffffffffffffffffffffffffff168152602001600182015481526020016002820160009054906101000a900473ffffffffffffffffffffffffffffffffffffffff1673ffffffffffffffffffffffffffffffffffffffff1673ffffffffffffffffffffffffffffffffffffffff1681526020016003820160009054906101000a900473ffffffffffffffffffffffffffffffffffffffff1673ffffffffffffffffffffffffffffffffffffffff1673ffffffffffffffffffffffffffffffffffffffff1681526020016003820160149054906101000a900460ff161515151581526020016004820154815260200160058201805480602002602001604051908101604052809291908181526020016000905b828210156110be57838290600052602060002001805461103190611e48565b80601f016020809104026020016040519081016040528092919081815260200182805461105d90611e48565b80156110aa5780601f1061107f576101008083540402835291602001916110aa565b820191906000526020600020905b81548152906001019060200180831161108d57829003601f168201915b505050505081526020019060010190611012565b50505050815250508383815181106110d9576110d8611e79565b5b602002602001018190525081806110ef90611dd1565b9250505b80806110fe90611dd1565b915050610e55565b508194505050505090565b6000600460008373ffffffffffffffffffffffffffffffffffffffff1673ffffffffffffffffffffffffffffffffffffffff16815260200190815260200160002060009054906101000a900460ff169050919050565b60006003600085815260200190815260200160002090508060030160149054906101000a900460ff166111cf576040517f08c379a00000000000000000000000000000000000000000000000000000000081526004016111c69061203f565b60405180910390fd5b8060020160009054906101000a900473ffffffffffffffffffffffffffffffffffffffff1673ffffffffffffffffffffffffffffffffffffffff166108fc849081150290604051600060405180830381858888f19350505050611267576040517f08c379a000000000000000000000000000000000000000000000000000000000815260040161125e906120ab565b60405180910390fd5b8281600401600082825461127b9190611d9d565b9250508190555080600501829080600181540180825580915050600190039060005260206000200160009091909190915090816112b89190612277565b5050505050565b6112c7611547565b60006003600083815260200190815260200160002090508060030160149054906101000a900460ff1661132f576040517f08c379a00000000000000000000000000000000000000000000000000000000081526004016113269061203f565b60405180910390fd5b3373ffffffffffffffffffffffffffffffffffffffff168160020160009054906101000a900473ffffffffffffffffffffffffffffffffffffffff1673ffffffffffffffffffffffffffffffffffffffff16146113c1576040517f08c379a00000000000000000000000000000000000000000000000000000000081526004016113b8906123bb565b60405180910390fd5b60036000838152602001908152602001600020600080820160006101000a81549073ffffffffffffffffffffffffffffffffffffffff021916905560018201600090556002820160006101000a81549073ffffffffffffffffffffffffffffffffffffffff02191690556003820160006101000a81549073ffffffffffffffffffffffffffffffffffffffff02191690556003820160146101000a81549060ff0219169055600482016000905560058201600061147e9190611690565b50507f48359e48a1f5ed61bd9a9b6a18ff557528271bcb297f07813c282639197d138b8160000160009054906101000a900473ffffffffffffffffffffffffffffffffffffffff1682600101548360020160009054906101000a900473ffffffffffffffffffffffffffffffffffffffff168460030160009054906101000a900473ffffffffffffffffffffffffffffffffffffffff166040516115259493929190612430565b60405180910390a1506115366115ac565b50565b600081600001549050919050565b60026000540361158c576040517f08c379a0000000000000000000000000000000000000000000000000000000008152600401611583906124c1565b60405180910390fd5b6002600081905550565b6001816000016000828254019250508190555050565b6001600081905550565b6040518060e00160405280600073ffffffffffffffffffffffffffffffffffffffff16815260200160008152602001600073ffffffffffffffffffffffffffffffffffffffff168152602001600073ffffffffffffffffffffffffffffffffffffffff16815260200160001515815260200160008152602001606081525090565b82805482825590600052602060002090810192821561167f579160200282015b8281111561167e57825182908161166e9190612277565b5091602001919060010190611657565b5b50905061168c91906116b1565b5090565b50805460008255906000526020600020908101906116ae91906116b1565b50565b5b808211156116d157600081816116c891906116d5565b506001016116b2565b5090565b5080546116e190611e48565b6000825580601f106116f35750611712565b601f0160209004906000526020600020908101906117119190611715565b5b50565b5b8082111561172e576000816000905550600101611716565b5090565b600081519050919050565b600082825260208201905092915050565b6000819050602082019050919050565b600073ffffffffffffffffffffffffffffffffffffffff82169050919050565b60006117898261175e565b9050919050565b6117998161177e565b82525050565b6000819050919050565b6117b28161179f565b82525050565b60006117c38261175e565b9050919050565b6117d3816117b8565b82525050565b60008115159050919050565b6117ee816117d9565b82525050565b600081519050919050565b600082825260208201905092915050565b6000819050602082019050919050565b600081519050919050565b600082825260208201905092915050565b60005b8381101561185a57808201518184015260208101905061183f565b60008484015250505050565b6000601f19601f8301169050919050565b600061188282611820565b61188c818561182b565b935061189c81856020860161183c565b6118a581611866565b840191505092915050565b60006118bc8383611877565b905092915050565b6000602082019050919050565b60006118dc826117f4565b6118e681856117ff565b9350836020820285016118f885611810565b8060005b85811015611934578484038952815161191585826118b0565b9450611920836118c4565b925060208a019950506001810190506118fc565b50829750879550505050505092915050565b600060e08301600083015161195e6000860182611790565b50602083015161197160208601826117a9565b50604083015161198460408601826117ca565b50606083015161199760608601826117ca565b5060808301516119aa60808601826117e5565b5060a08301516119bd60a08601826117a9565b5060c083015184820360c08601526119d582826118d1565b9150508091505092915050565b60006119ee8383611946565b905092915050565b6000602082019050919050565b6000611a0e82611732565b611a18818561173d565b935083602082028501611a2a8561174e565b8060005b85811015611a665784840389528151611a4785826119e2565b9450611a52836119f6565b925060208a01995050600181019050611a2e565b50829750879550505050505092915050565b60006020820190508181036000830152611a928184611a03565b905092915050565b6000604051905090565b600080fd5b600080fd5b611ab78161177e565b8114611ac257600080fd5b50565b600081359050611ad481611aae565b92915050565b611ae38161179f565b8114611aee57600080fd5b50565b600081359050611b0081611ada565b92915050565b60008060408385031215611b1d57611b1c611aa4565b5b6000611b2b85828601611ac5565b9250506020611b3c85828601611af1565b9150509250929050565b600060208284031215611b5c57611b5b611aa4565b5b6000611b6a84828501611ac5565b91505092915050565b611b7c816117d9565b82525050565b6000602082019050611b976000830184611b73565b92915050565b600080fd5b600080fd5b7f4e487b7100000000000000000000000000000000000000000000000000000000600052604160045260246000fd5b611bdf82611866565b810181811067ffffffffffffffff82111715611bfe57611bfd611ba7565b5b80604052505050565b6000611c11611a9a565b9050611c1d8282611bd6565b919050565b600067ffffffffffffffff821115611c3d57611c3c611ba7565b5b611c4682611866565b9050602081019050919050565b82818337600083830152505050565b6000611c75611c7084611c22565b611c07565b905082815260208101848484011115611c9157611c90611ba2565b5b611c9c848285611c53565b509392505050565b600082601f830112611cb957611cb8611b9d565b5b8135611cc9848260208601611c62565b91505092915050565b600080600060608486031215611ceb57611cea611aa4565b5b6000611cf986828701611af1565b9350506020611d0a86828701611af1565b925050604084013567ffffffffffffffff811115611d2b57611d2a611aa9565b5b611d3786828701611ca4565b9150509250925092565b600060208284031215611d5757611d56611aa4565b5b6000611d6584828501611af1565b91505092915050565b7f4e487b7100000000000000000000000000000000000000000000000000000000600052601160045260246000fd5b6000611da88261179f565b9150611db38361179f565b9250828201905080821115611dcb57611dca611d6e565b5b92915050565b6000611ddc8261179f565b91507fffffffffffffffffffffffffffffffffffffffffffffffffffffffffffffffff8203611e0e57611e0d611d6e565b5b600182019050919050565b7f4e487b7100000000000000000000000000000000000000000000000000000000600052602260045260246000fd5b60006002820490506001821680611e6057607f821691505b602082108103611e7357611e72611e19565b5b50919050565b7f4e487b7100000000000000000000000000000000000000000000000000000000600052603260045260246000fd5b600082825260208201905092915050565b7f596f752063616e206f6e6c79206c697374206f6e65204e465400000000000000600082015250565b6000611eef601983611ea8565b9150611efa82611eb9565b602082019050919050565b60006020820190508181036000830152611f1e81611ee2565b9050919050565b611f2e8161177e565b82525050565b611f3d8161179f565b82525050565b6000606082019050611f586000830186611f25565b611f656020830185611f25565b611f726040830184611f34565b949350505050565b6000608082019050611f8f6000830187611f25565b611f9c6020830186611f34565b611fa96040830185611f25565b611fb66060830184611f25565b95945050505050565b6000611fca8261179f565b9150611fd58361179f565b9250828203905081811115611fed57611fec611d6e565b5b92915050565b7f4e4654206973206e6f74206c6973746564000000000000000000000000000000600082015250565b6000612029601183611ea8565b915061203482611ff3565b602082019050919050565b600060208201905081810360008301526120588161201c565b9050919050565b7f5472616e73666572206661696c65640000000000000000000000000000000000600082015250565b6000612095600f83611ea8565b91506120a08261205f565b602082019050919050565b600060208201905081810360008301526120c481612088565b9050919050565b60008190508160005260206000209050919050565b60006020601f8301049050919050565b600082821b905092915050565b60006008830261212d7fffffffffffffffffffffffffffffffffffffffffffffffffffffffffffffffff826120f0565b61213786836120f0565b95508019841693508086168417925050509392505050565b6000819050919050565b600061217461216f61216a8461179f565b61214f565b61179f565b9050919050565b6000819050919050565b61218e83612159565b6121a261219a8261217b565b8484546120fd565b825550505050565b600090565b6121b76121aa565b6121c2818484612185565b505050565b5b818110156121e6576121db6000826121af565b6001810190506121c8565b5050565b601f82111561222b576121fc816120cb565b612205846120e0565b81016020851015612214578190505b612228612220856120e0565b8301826121c7565b50505b505050565b600082821c905092915050565b600061224e60001984600802612230565b1980831691505092915050565b6000612267838361223d565b9150826002028217905092915050565b61228082611820565b67ffffffffffffffff81111561229957612298611ba7565b5b6122a38254611e48565b6122ae8282856121ea565b600060209050601f8311600181146122e157600084156122cf578287015190505b6122d9858261225b565b865550612341565b601f1984166122ef866120cb565b60005b82811015612317578489015182556001820191506020850194506020810190506122f2565b868310156123345784890151612330601f89168261223d565b8355505b6001600288020188555050505b505050505050565b7f4f6e6c79207468652073656c6c65722063616e2064656c65746520746865204e60008201527f4654000000000000000000000000000000000000000000000000000000000000602082015250565b60006123a5602283611ea8565b91506123b082612349565b604082019050919050565b600060208201905081810360008301526123d481612398565b9050919050565b60006123f66123f16123ec8461175e565b61214f565b61175e565b9050919050565b6000612408826123db565b9050919050565b600061241a826123fd565b9050919050565b61242a8161240f565b82525050565b60006080820190506124456000830187611f25565b6124526020830186611f34565b61245f6040830185612421565b61246c6060830184612421565b95945050505050565b7f5265656e7472616e637947756172643a207265656e7472616e742063616c6c00600082015250565b60006124ab601f83611ea8565b91506124b682612475565b602082019050919050565b600060208201905081810360008301526124da8161249e565b905091905056fea26469706673582212207d3e1aaa7e5a9ddfddf0cfda9b8a59d4254a725505dffde0f324aac07f46c3cd64736f6c63430008110033",
  "immutableReferences": {},
  "source": "// SPDX-License-Identifier: MIT\npragma solidity ^0.8.13;\n\nimport \"@openzeppelin/contracts/utils/Counters.sol\";\nimport \"@openzeppelin/contracts/token/ERC721/ERC721.sol\";\nimport \"@openzeppelin/contracts/security/ReentrancyGuard.sol\";\n\ncontract Commend is ReentrancyGuard {\n    using Counters for Counters.Counter;\n    Counters.Counter private _nftsSold;\n    Counters.Counter private _nftCount;\n\n    mapping(uint256 => NFT) private _idToNFT;\n    mapping(address => bool) private _hasListedNft;\n    mapping(address => uint256) private _sellerCommendCounts;\n\n    struct NFT {\n        address nftContract;\n        uint256 tokenId;\n        address payable seller;\n        address payable owner;\n        bool listed;\n        uint256 commendCount;\n        string[] descriptions;\n    }\n\n    event NFTListed(\n        address nftContract,\n        uint256 tokenId,\n        address seller,\n        address owner\n    );\n\n    event NFTSold(\n        address nftContract,\n        uint256 tokenId,\n        address seller,\n        address owner\n    );\n\n    event NFTDeleted(\n        address nftContract,\n        uint256 tokenId,\n        address seller,\n        address owner\n    );\n\n    function giveCommend(\n        uint256 _tokenId,\n        uint256 _commendCount,\n        string memory _description\n    ) public payable {\n        // Ensure that the NFT exists and is listed\n        NFT storage nft = _idToNFT[_tokenId];\n        require(nft.listed, \"NFT is not listed\");\n\n        // send the heat to the seller of the NFT\n        require(payable((nft.seller)).send(_commendCount), \"Transfer failed\");\n\n        // Increment the commendCount of the NFT by the given amount\n        nft.commendCount += _commendCount;\n\n        // Append the new description to the existing array of descriptions\n        nft.descriptions.push(_description);\n    }\n\n    // function to send commend to the owner of the NFTs, respectivly\n\n    function deleteNft(uint256 _tokenId) public nonReentrant {\n        // Ensure that the NFT exists and is listed\n        NFT storage nft = _idToNFT[_tokenId];\n        require(nft.listed, \"NFT is not listed\");\n\n        // Ensure that the seller of the NFT is the one calling this function\n        require(nft.seller == msg.sender, \"Only the seller can delete the NFT\");\n\n        // Remove the NFT from the marketplace\n        delete _idToNFT[_tokenId];\n\n        emit NFTDeleted(nft.nftContract, nft.tokenId, nft.seller, nft.owner);\n    }\n\n    // List the NFT on the marketplace\n    function listNft(address _nftContract, uint256 _tokenId)\n        public\n        payable\n        nonReentrant\n    {\n        require(!_hasListedNft[msg.sender], \"You can only list one NFT\");\n\n        IERC721(_nftContract).transferFrom(msg.sender, address(this), _tokenId);\n\n        _nftCount.increment();\n\n        _idToNFT[_tokenId] = NFT(\n            _nftContract,\n            _tokenId,\n            payable(msg.sender),\n            payable(address(this)),\n            true,\n            0,\n            new string[](0)\n        );\n\n        _hasListedNft[msg.sender] = true;\n\n        emit NFTListed(_nftContract, _tokenId, msg.sender, address(this));\n    }\n\n    function hasListedNft(address _address) public view returns (bool) {\n        return _hasListedNft[_address];\n    }\n\n    function getListedNfts() public view returns (NFT[] memory) {\n        uint256 nftCount = _nftCount.current();\n        uint256 unsoldNftsCount = nftCount - _nftsSold.current();\n\n        NFT[] memory nfts = new NFT[](unsoldNftsCount);\n        uint256 nftsIndex = 0;\n        for (uint256 i = 0; i < nftCount; i++) {\n            if (_idToNFT[i + 1].listed) {\n                nfts[nftsIndex] = _idToNFT[i + 1];\n                nftsIndex++;\n            }\n        }\n        return nfts;\n    }\n\n    function getMyNfts() public view returns (NFT[] memory) {\n        uint256 nftCount = _nftCount.current();\n        uint256 myNftCount = 0;\n        for (uint256 i = 0; i < nftCount; i++) {\n            if (_idToNFT[i + 1].owner == msg.sender) {\n                myNftCount++;\n            }\n        }\n\n        NFT[] memory nfts = new NFT[](myNftCount);\n        uint256 nftsIndex = 0;\n        for (uint256 i = 0; i < nftCount; i++) {\n            if (_idToNFT[i + 1].owner == msg.sender) {\n                nfts[nftsIndex] = _idToNFT[i + 1];\n                nftsIndex++;\n            }\n        }\n        return nfts;\n    }\n\n    function getMyListedNfts() public view returns (NFT[] memory) {\n        uint256 nftCount = _nftCount.current();\n        uint256 myListedNftCount = 0;\n        for (uint256 i = 0; i < nftCount; i++) {\n            if (\n                _idToNFT[i + 1].seller == msg.sender && _idToNFT[i + 1].listed\n            ) {\n                myListedNftCount++;\n            }\n        }\n\n        NFT[] memory nfts = new NFT[](myListedNftCount);\n        uint256 nftsIndex = 0;\n        for (uint256 i = 0; i < nftCount; i++) {\n            if (\n                _idToNFT[i + 1].seller == msg.sender && _idToNFT[i + 1].listed\n            ) {\n                nfts[nftsIndex] = _idToNFT[i + 1];\n                nftsIndex++;\n            }\n        }\n        return nfts;\n    }\n}\n",
  "sourcePath": "/Users/chrisabdo/web3projects/commend/backend/contracts/Commend.sol",
  "compiler": {
    "name": "solc",
    "version": "0.8.17+commit.8df45f5f.Emscripten.clang"
  },
  "schemaVersion": "3.4.12",
  "updatedAt": "2023-02-28T06:23:19.211Z",
  "networkType": "ethereum",
  "devdoc": {
    "kind": "dev",
    "methods": {},
    "version": 1
  },
  "userdoc": {
    "kind": "user",
    "methods": {},
    "version": 1
  }
}